:100000000C9474000C949C000C949C000C949C0028
:100010000C949C000C949C000C949C000C949C00F0
:100020000C949C000C949C000C949C000C949E0AD4
:100030000C949C000C949C000C949C000C949C00D0
:100040000C94EA090C949C000C94E10F0C94BB0FE7
:100050000C949C000C949C000C949C000C949C00B0
:100060000C945F0B0C949C00084AD73B3BCE016E6E
:1000700084BCBFFDC12F3D6C74319ABD56833DDAFF
:100080003D00C77F11BED9E4BB4C3E916BAAAABE0E
:10009000000000803F000000000800020100000393
:1000A0000407000000000000000000000000250020
:1000B00028002B0000000000240027002A00040470
:1000C0000404040404040202020202020303030300
:1000D00003030102040810204080010204081020DC
:1000E0000102040810205F1011241FBECFEFD8E0DA
:1000F000DEBFCDBF11E0A0E0B1E0E6E5FFE202C067
:1001000005900D92AC34B107D9F723E0ACE4B1E02F
:1001100001C01D92A832B207E1F710E0C4E7D0E0B9
:1001200004C02197FE010E947215C337D107C9F799
:100130000E94EA100C94A9170C9400003FB7F894A1
:100140008091390290913A02A0913B02B0913C0219
:1001500026B5A89B05C02F3F19F00196A11DB11D22
:100160003FBFBA2FA92F982F8827820F911DA11D5D
:10017000B11DBC01CD0142E0660F771F881F991F9A
:100180004A95D1F708958F929F92AF92BF92CF92E6
:10019000DF92EF92FF926B017C010E949E004B0167
:1001A0005C01C114D104E104F104F1F00E949E004D
:1001B000DC01CB0188199909AA09BB09883E934043
:1001C000A105B10570F321E0C21AD108E108F108D8
:1001D00088EE880E83E0981EA11CB11CC114D104C6
:1001E000E104F10419F7DDCFFF90EF90DF90CF909D
:1001F000BF90AF909F908F900895FC0190819C30AC
:1002000080F5818128E830E0281B310987FD33958E
:10021000220F331F220F331F621773077CF0828176
:1002200028E532E0281B310987FD3395220F331F63
:10023000220F331F621773070CF49B012250310900
:10024000220F331F4FB7F894892F90E0FC01EE0F77
:10025000FF1F8E0F9F1FFC01E750FD4F328321834C
:100260004FBF089585ED8093BC008091BC0084FD54
:10027000FCCF10923F0208954091F001262F30E00C
:10028000240F311D21323105DCF420913F0224304E
:10029000C9F4FC0180E090E0861758F43091F00139
:1002A0002191DC01A053BE4FA30FB11D2C930196E9
:1002B000F3CF8091F001680F6093F00180E0089522
:1002C00081E0089582E00895E0914A02F0914B02A6
:1002D000309729F01092410210924002099408953B
:1002E000CF93DF93AC01E0914802F091490230973F
:1002F000F1F090914302809142029817C0F090E093
:10030000292F30E02617370754F4D901A055BE4FE6
:10031000EA01C20FD31F88818C939F5FF1CF1092A7
:10032000430260934202CB01DF91CF910994DF91A8
:10033000CF9108950895E091430280914202E81719
:1003400030F4F0E0E055FE4F808190E008958FEFAB
:100350009FEF08959091430280914202981750F4C4
:10036000E92FF0E0E055FE4F208130E09F5F909351
:10037000430202C02FEF3FEFC9010895809142026E
:1003800090E020914302821B91090895CF93DF935F
:1003900000D0CDB7DEB7CB01642F49835A830E94CA
:1003A0003C014981842F5A81952F0F900F90DF9146
:1003B000CF910895CF93DF931F92CDB7DEB76983B6
:1003C00061E0CE0101960E943C0181E090E00F9037
:1003D000DF91CF910895089580E090E0089564E062
:1003E0008DEE92E00C94DA012F923F924F925F9241
:1003F0006F927F928F929F92AF92BF92CF92DF9235
:10040000EF92FF920F931F93CF93DF93CDB7DEB799
:10041000C054D1090FB6F894DEBF0FBECDBF6AE05D
:10042000CE0109960E940F0F6AE271E0CE0101969B
:100430000E94FA0EBE016F5F7F4FCE0109960E94A7
:10044000DB0E8C01CE0101960E94F50E0F3F1F4F6F
:10045000A1F181E090E00E948B0E60ED77E081E2F7
:1004600093E00E94FD0060ED77E08EE193E00E9452
:10047000FD006CEA7DE080E090E00E94C30068EE41
:1004800073E081E293E00E94FD0068EE73E08EE18C
:1004900093E00E94FD0060ED77E080E090E00E9434
:1004A000C30068EE73E081E293E00E94FD0068EE15
:1004B00073E08EE193E00E94FD00CE0109960E9458
:1004C000F50E63E5CE014B960E940F0F8F8D98A11C
:1004D000892B69F00B8D1C8D63E570E0C8010E94CB
:1004E0007D17009721F09C01201B310B02C02FEFDC
:1004F0003FEF40E050E0BE01655E7F4FCE01459684
:100500000E94560F60E371E0CE0101960E94FA0E40
:10051000BE016F5F7F4FCE014B960E94DB0E8C01B8
:10052000CE0101960E94F50E2F8D38A1A8014E5FD5
:100530005F4FBE01655E7F4FCE010F960E94560F42
:1005400063E371E0CE0101960E94FA0EBE016F5F77
:100550007F4FCE014B960E94DB0E8C01CE0101969F
:100560000E94F50E2F8D38A1A8014E5F5F4FBE018E
:10057000655E7F4FCE0109960E94560F66E371E0DB
:10058000CE0101960E94FA0EBE016F5F7F4FCE0131
:100590004B960E94DB0E8C01CE0101960E94F50E57
:1005A0002F8D38A1A8014E5F5F4FBE01655E7F4F62
:1005B000CE0101960E94560F8F859889009719F0F9
:1005C0000E94D11103C060E070E0CB010E941412C0
:1005D0006B017C0160935401709355018093560127
:1005E0009093570189859A85009719F00E94D1113F
:1005F00003C060E070E0CB010E94141260935001D0
:1006000070935101809352019093530189819A8193
:10061000009719F00E94D11103C060E070E0CB0197
:100620000E94141260934C0170934D0180934E010F
:1006300090934F01A7019601C701B6010E944C1586
:10064000882319F089E391E01AC046015701E89424
:10065000B7F82FEF3FEF4FE75FE7C501B4010E9406
:100660004C1581110FC02FEF3FEF4FE75FE7C5013A
:10067000B4010E940D1218162CF48DE391E00E9433
:100680002D0E72C02FEF3FEF4FE75FE4C701B601B9
:100690000E94F51418161CF481E491E0F0CF2FEFBE
:1006A0003FEF4FE75FECC701B6010E940D1287FDD7
:1006B000F3CF20E030E0A901C701B6010E940D127E
:1006C00087FF07C08DE20E943F0EF7FAF094F7F81B
:1006D000F0942AE037ED43EA5BE3C701B6010E94DC
:1006E0008B134B015C010E949F146B017C010E94E3
:1006F00012129B01AC01C501B4010E948A134B0187
:100700005C014AE0C701B6010E944A0E8EE20E94D7
:100710003F0E20E030E040E251E4C501B4010E9408
:1007200073124B015C010E949F146B01E12CF12CB0
:100730004AE0C701B6010E944A0EC701B6010E94F5
:1007400012129B01AC01C501B4010E948A1320E082
:1007500030E040E251E40E9473120E949F1480E056
:1007600090E04AE00E944A0E85E491E00E942D0E3E
:10077000CE0101960E94F50ECE0109960E94F50E5B
:10078000CE010F960E94F50ECE0145960E94F50E01
:10079000CE014B960E94F50EC0905401D0905501A9
:1007A000E0905601F090570120E030E048E453E437
:1007B000C701B6010E948A1369A37AA38BA39CA3E5
:1007C0008091500190915101A0915201B09153013B
:1007D0008DA79EA7AFA7B8AB20E030E048E453E474
:1007E000BC01CD010E948A136DA37EA38FA398A79D
:1007F00020E030E0A90169A17AA18BA19CA10E940F
:10080000F514181634F089A19AA1ABA1BCA1B05877
:1008100004C089A19AA1ABA1BCA189AB9AABABAB37
:10082000BCAB89A99AA9ABA9BCA980938401909378
:100830008501A0938601B093870120E030E0A901F3
:100840006DA17EA18FA198A50E94F514181634F011
:100850008DA19EA1AFA1B8A5B05804C08DA19EA145
:10086000AFA1B8A58DAB9EABAFABB8AF8DA99EA91C
:10087000AFA9B8AD8093800190938101A0938201CC
:10088000B09383019C01AD0169A97AA98BA99CA9A8
:100890000E9426140E94F71320E030E044E353E462
:1008A0000E9473122BED3FE049E450E40E942614AD
:1008B0004B015C0120E030E048E453E46DA57EA5E7
:1008C0008FA598A90E940D1287FF15C020E030E087
:1008D00048E453E4C701B6010E94F51418165CF40D
:1008E00020914C0130914D0140914E0150914F01AA
:1008F000C501B4013CC020E030E048E453E46DA5FC
:100900007EA58FA598A90E94F514181604F520E07D
:1009100030E048E453E4C701B6010E94F51418160C
:10092000B4F480914C0190914D01A0914E01B09191
:100930004F01BC01CD01905820E030E044E353E486
:100940000E948A13A50194010E948B1312C020916A
:100950004C0130914D0140914E0150914F0160E0AA
:1009600070E084E393E40E948A13A50194010E943D
:100970008A136093AC017093AD018093AE019093A4
:10098000AF0120E030EC4FE855E4C701B6010E940A
:100990008A1369A77AA78BA79CA720E030E0A9015A
:1009A0000E94F514181634F089A59AA5ABA5BCA52C
:1009B000B05804C089A59AA5ABA5BCA589AF9AAFCC
:1009C000ABAFBCAF89AD9AADABADBCAD8093780198
:1009D00090937901A0937A01B0937B0120E030E0FD
:1009E000A9016DA17EA18FA198A50E94F5141816EA
:1009F0004CF08DA19EA1AFA1B8A5B0588DA39EA328
:100A0000AFA3B8A78DA19EA1AFA1B8A58093740193
:100A100090937501A0937601B09377019C01AD018D
:100A200069AD7AAD8BAD9CAD0E9426140E94F71380
:100A300020E030E044E353E40E9473122BED3FE0EA
:100A400049E450E40E9426142B013C0120E030E0F0
:100A500048E453E46DA57EA58FA598A90E940D12C8
:100A600087FF1DC020E030EC4FE855E4C701B60118
:100A70000E940D1287FF13C020914C0130914D014F
:100A800040914E0150914F0160E070E084EB92E4A0
:100A90000E948A13A30192010E948B1341C020E09F
:100AA00030E048E453E46DA57EA58FA598A90E9487
:100AB000F5141816DCF420E030EC4FE855E4C701DB
:100AC000B6010E940D1287FF11C020914C01309198
:100AD0004D0140914E0150914F0160E070E084E380
:100AE00093E40E948A13A301920118C080904C01E4
:100AF00090904D01A0904E01B0904F01B7FAB09484
:100B0000B7F8B094A301920160E070E084E393E44D
:100B10000E948A139B01AC01C501B4010E948A1393
:100B20006093A8017093A9018093AA019093AB01EF
:100B300020E030EC4FE855E46DA57EA58FA598A97F
:100B40000E948A132B013C0120E030E0A90169A535
:100B50007AA58BA59CA50E94F51418164CF089A5C2
:100B60009AA5ABA5BCA5B05889A79AA7ABA7BCA767
:100B700089A59AA5ABA5BCA580936C0190936D0146
:100B8000A0936E01B0936F0120E030E0A901C30192
:100B9000B2010E94F514181654F0D301C201B058E6
:100BA00021968CAF9DAFAEAFBFAF219706C0219607
:100BB0004CAE5DAE6EAE7FAE219721968CAD9DADF5
:100BC000AEADBFAD21978093680190936901A0936A
:100BD0006A01B0936B019C01AD0169A57AA58BA553
:100BE0009CA50E9426140E94F71320E030E044E305
:100BF00053E40E9473122BED3FE049E450E40E945D
:100C000026144B015C0120E030EC4FE855E46DA563
:100C10007EA58FA598A90E940D1287FF2BC020E00A
:100C200030EC4FE855E4C701B6010E94F5141816E0
:100C300064F480914C0190914D01A0914E01B091CE
:100C40004F01BC01CD01905823C020E030EC4FE8AB
:100C500055E4C701B6010E940D1287FF0BC0209119
:100C60004C0130914D0140914E0150914F01C50111
:100C7000B40110C020914C0130914D0140914E01C2
:100C800050914F0160E070E084E393E40E948A1386
:100C9000A50194010E948A136093A4017093A50199
:100CA0008093A6019093A70120E030E0A90169A1FB
:100CB0007AA18BA19CA10E94F51418164CF089A171
:100CC0009AA1ABA1BCA1B05889A39AA3ABA3BCA322
:100CD00089A19AA1ABA1BCA180936001909361010D
:100CE000A0936201B093630120E030E0A901C30149
:100CF000B2010E94F514181624F077FA709477F870
:100D0000709440925C0150925D0160925E0170921D
:100D10005F01A301920169A17AA18BA19CA10E940C
:100D200026140E94F71320E030E044E353E40E94CD
:100D300073122BED3FE049E450E40E9426144B016E
:100D40005C0120E030EC4FE855E46DA57EA58FA551
:100D500098A90E94F5141816ECF420E030E048E45D
:100D600053E4C701B6010E94F51418169CF42091B3
:100D70004C0130914D0140914E0150914F0160E086
:100D800070E084E393EC0E948A13A50194010E9411
:100D90008B1330C020E030EC4FE855E46DA57EA504
:100DA0008FA598A90E940D1287FF18C020E030E09F
:100DB00048E453E4C701B6010E94F514181674F410
:100DC00080914C0190914D01A0914E01B0914F0145
:100DD000BC01CD019058A50194010AC020914C019D
:100DE00030914D0140914E0150914F01C501B40128
:100DF0000E948A136093A0017093A1018093A201C5
:100E00009093A30129A93AA94BA95CA9CA01B901E8
:100E10000E9473126B017C012DA93EA94FA958AD08
:100E2000CA01B9010E9473129B01AC01C701B6014E
:100E30000E948B130E94081560937C0170937D01C2
:100E400080937E0190937F0129AD3AAD4BAD5CADAF
:100E5000CA01B9010E9473126B017C012DA13EA150
:100E60004FA158A5CA01B9010E9473129B01AC01A0
:100E7000C701B6010E948B130E9408156093700190
:100E800070937101809372019093730129A53AA523
:100E90004BA55CA5CA01B9010E9473126B017C01CC
:100EA00021962CAD3DAD4EAD5FAD2197CA01B90184
:100EB0000E9473129B01AC01C701B6010E948B1303
:100EC0000E94081560936401709365018093660128
:100ED0009093670129A13AA14BA15CA1CA01B90174
:100EE0000E9473126B017C01A3019201C301B20144
:100EF0000E9473129B01AC01C701B6010E948B13C3
:100F00000E940815609358017093590180935A010B
:100F100090935B011E0199E0290E311C64E5C1012B
:100F20000E940F0F68E471E0CE0101960E94FA0E54
:100F3000BE016F5F7F4FC1010E94DB0E8C01CE01AD
:100F400001960E94F50E0F3F1F4F21F082E090E0C6
:100F50000E948B0EC1010E94F50E6091AC01709150
:100F6000AD018091AE019091AF010E9498147A83F7
:100F700069836091A8017091A9018091AA01909163
:100F8000AB010E9498147C836B836091A4017091E3
:100F9000A5018091A6019091A7010E9498147E83DB
:100FA0006D836091A0017091A1018091A201909147
:100FB000A3010E94981478876F83FE013196FAA3EB
:100FC000E9A30BE311E0A9A1BAA16D917D91BAA3A8
:100FD000A9A3072E000C880B990B0E9414122B0159
:100FE0003C0160939C0170939D0180939E019093BE
:100FF0009F01209198013091990140919A0150915F
:101000009B010E948A134B015C01609394017093D1
:101010009501809396019093970120E030E044EB96
:1010200052E40E94731220E030E040E85DE30E9449
:10103000731226E636E646EE5DE30E9426146B0147
:101040007C01609390017093910180939201909341
:101050009301409298015092990160929A01709286
:101060009B0120918C0130918D0140918E01509116
:101070008F01C501B4010E948B134B015C01609389
:101080008C0170938D0180938E0190938F0120E0ED
:1010900030E0A901C701B6010E940D1287FF0CC004
:1010A000D701C601B0588093880190938901A0931D
:1010B0008A01B0938B0108C0C0928801D092890147
:1010C000E0928A01F0928B0120E030EA4CE856E48D
:1010D000C701B6010E940D121816ACF120E030E0F5
:1010E000A901C701B6010E94F514181664F561E064
:1010F00084E00E941310E12CF12CB7010F2C000C9E
:10110000880B990B0E94141220918801309189015B
:1011100040918A0150918B010E940D1218160CF417
:1011200054C061E085E00E941310C8010197F1F7F7
:1011300060E085E00E941310C8010197F1F7BFEF4E
:10114000EB1AFB0ADACF20E030EA4CE856ECC70194
:10115000B6010E94F51487FD34C020E030E0A901FB
:10116000C701B6010E940D1287FF2BC060E084E02A
:101170000E941310E12CF12CB7010F2C000C880BEE
:10118000990B0E941412209188013091890140919D
:101190008A0150918B010E940D121816B4F061E083
:1011A00085E00E941310C8010197F1F760E085E027
:1011B0000E941310C8010197F1F7EFEFEE1AFE0A33
:1011C000DBCF60E085E00E9413108CE00E94BC0E33
:1011D00064EF71E080E090E00E94C30061E08CE089
:1011E0000E94131062E276E080E090E00E94C3006B
:1011F00060E08CE00E94131068EE73E081E293E0FF
:101200000E94FD0068EE73E08EE193E00E94FD0015
:1012100060ED77E080E090E00E94C30089A19AA190
:101220008215930509F0CFCE20E030E044EB52E484
:10123000C501B4010E94731220E030E040E85DE394
:101240000E94731226E636E646EE5DE30E942614FF
:101250006B017C01609390017093910180939201E6
:101260009093930120E030E0A9010E940D1287FFC6
:101270000CC0D701C601B0588093880190938901B2
:10128000A0938A01B0938B0108C0C0928801D092CC
:101290008901E0928A01F0928B0120E030EA4CE86B
:1012A00056E4C701B6010E940D121816C4F120E0E1
:1012B00030E0A901C701B6010E94F51418167CF5AB
:1012C00060E084E00E94131000E010E09BE3E92E50
:1012D000FF24F394B801012E000C880B990B0E9497
:1012E0001412209188013091890140918A01509116
:1012F0008B010E940D1218160CF452C061E085E0BB
:101300000E941310C7010197F1F760E085E00E9489
:101310001310C7010197F1F70F5F1F4FDBCF20E0DC
:1013200030EA4CE856ECC701B6010E94F51487FD7F
:1013300037C020E030E0A901C701B6010E940D12BC
:1013400087FF2EC061E084E00E94131000E010E0EF
:101350008BE3E82EFF24F394B801012E000C880BD8
:10136000990B0E94141220918801309189014091BB
:101370008A0150918B010E940D1218168CF061E0C9
:1013800085E00E941310C7010197F1F760E085E046
:101390000E941310C7010197F1F70F5F1F4FDCCFB9
:1013A000C05CDF4F0FB6F894DEBF0FBECDBFDF913C
:1013B000CF911F910F91FF90EF90DF90CF90BF9052
:1013C000AF909F908F907F906F905F904F903F90E5
:1013D0002F9008951F920F920FB60F9211242F9302
:1013E0003F938F939F93AF93BF9380914C029091C3
:1013F0004D02A0914E02B0914F023091380223E08D
:10140000230F2D3720F40196A11DB11D05C026E83C
:10141000230F0296A11DB11D2093380280934C0228
:1014200090934D02A0934E02B0934F0280913902E7
:1014300090913A02A0913B02B0913C020196A11D0D
:10144000B11D8093390290933A02A0933B02B0936E
:101450003C02BF91AF919F918F913F912F910F903F
:101460000FBE0F901F9018950F931F93CF93DF938C
:101470001F92CDB7DEB78C01DC018C918C3008F067
:1014800055C0862F69830E94BC0EF8018081E82F29
:10149000F0E09F01220F331FE20FF31FE750FD4FD3
:1014A00069816F739081907C692B6083D80111965C
:1014B0001C92119712961C926CE00E946615BCE07B
:1014C0008B9FB001112440E050E09A01260F371F96
:1014D000F901EE0FFF1F2E0F3F1FF901E750FD4FDF
:1014E000908196FD16C04F5F5F4F4C30510569F7F4
:1014F00081110FC01092800082E0809381001092D1
:10150000850010928400B19A80916F008260809370
:101510006F00D801EC91F0E0CF01880F991FE80F20
:10152000F91FE750FD4F808180648083F80180813E
:101530000F90DF91CF911F910F9108951F920F92FD
:101540000FB60F9211242F933F934F935F936F9396
:101550007F938F939F93AF93BF93EF93FF9380916C
:10156000370287FF05C010928500109284001BC0CF
:1015700020913702022E000C330B80911D0390E066
:101580002817390784F480913702082E000C990B34
:10159000FC01EE0FFF1F8E0F9F1FFC01E750FD4F58
:1015A000808186FD15C0809137028F5F809337025E
:1015B00020913702022E000C330B80911D0390E026
:1015C00028173907C4F4809137028C3064F113C0B6
:1015D00080913702082E000C990BFC01EE0FFF1FC3
:1015E0008E0F9F1FFC01E750FD4F808160E08F73DD
:1015F0000E941310D8CF80918400909185000496AA
:1016000080349C4918F480E49CE905C080918400F2
:1016100090918500049690938900809388008FEFC5
:10162000809337023BC020918400309185008091E7
:101630003702082E000C990BFC01EE0FFF1F8E0FD6
:101640009F1FFC01E750FD4F81819281820F931F04
:10165000909389008093880080913702082E000CB7
:10166000990BFC01EE0FFF1F8E0F9F1FFC01E7502F
:10167000FD4F808186FF12C080913702082E000C3A
:10168000990BFC01EE0FFF1F8E0F9F1FFC01E7500F
:10169000FD4F808161E08F730E941310FF91EF91E5
:1016A000BF91AF919F918F917F916F915F914F917A
:1016B0003F912F910F900FBE0F901F9018951F9282
:1016C0000F920FB60F9211242F933F934F935F9376
:1016D0006F937F938F939F93AF93BF93EF93FF93FA
:1016E0008091B900887F803609F49CC068F5883203
:1016F00009F45BC090F4803109F454C038F48823B5
:1017000009F4F6C0883009F44DC0F6C0883109F4F8
:101710004CC0803209F45DC0EFC0803409F468C069
:1017200048F4803309F455C0883309F0E5C080934C
:101730001302D8C0803509F44FC0883509F45DC064
:10174000883409F0D9C0D6C0883909F4C7C0A8F4D4
:10175000883709F467C038F4883609F463C08037E5
:1017600009F460C0C9C0883809F4B8C0803909F4E8
:101770005FC0803809F0C0C05BC0803B09F486C000
:1017800038F4803A09F466C0883A09F47FC0B4C0DE
:10179000803C09F4A7C0883C09F4A4C0883B09F444
:1017A0008AC0AAC08091360210C090913502809103
:1017B0003402981770F5E091350281E08E0F809326
:1017C0003502F0E0EC5EFD4F80818093BB0085EC3C
:1017D00086C0809313028EC0E091350281E08E0FA7
:1017E000809335028091BB00F0E0EC5EFD4F80837A
:1017F00090913502809134026EC0E091350281E013
:101800008E0F809335028091BB00F0E0EC5EFD4FBF
:10181000808380913E0281116DC081E080933D0202
:1018200084EA61C083E080933F0210921202CFCF1E
:1018300080911202803208F051C0E091120281E0E2
:101840008E0F809312028091BB00F0E0EE50FE4FAD
:101850008083BDCF85EC8093BC0010923F028091C5
:101860001202803230F4E0911202F0E0EE50FE4FAE
:1018700010826091120270E0E0914402F091450202
:1018800082EF91E009951092120236C084E08093B5
:101890003F021092F1011092F001E0914602F091A6
:1018A000470209958091F001811105C081E0809384
:1018B000F0011092D001E091F10181E08E0F809350
:1018C000F101F0E0E053FE4F80818093BB009091E6
:1018D000F1018091F001981708F479CF85E88093A1
:1018E000BC000AC085EC8093BC0010923F0204C08B
:1018F000109213020E943201FF91EF91BF91AF91BC
:101900009F918F917F916F915F914F913F912F9117
:101910000F900FBE0F901F9018952FB7F8948091DD
:101920004C0290914D02A0914E02B0914F022FBFF8
:101930008093F5029093F602A093F702B093F80219
:10194000E091ED02F091EE020284F385E02D8DEE40
:1019500092E0099597FF26C02FB7F89480914C022A
:1019600090914D02A0914E02B0914F022FBF409135
:10197000F5025091F6026091F7027091F802841B13
:10198000950BA60BB70B4091F1025091F2026091BA
:10199000F3027091F40284179507A607B70780F247
:1019A0008FEF9FEF0895CF92DF92EF92FF920F9308
:1019B0001F93CF93DF936C017A018B01C0E0D0E0DD
:1019C000CE15DF0589F0D8016D918D01D601ED911D
:1019D000FC910190F081E02DC6010995892B11F44D
:1019E0007E0102C02196ECCFC701DF91CF911F91FC
:1019F0000F91FF90EF90DF90CF900895FC01538DF1
:101A0000448D252F30E0842F90E0821B930B5417D8
:101A100010F0CF96089501970895FC01918D828D65
:101A2000981761F0828DDF01A80FB11D5D968C9132
:101A3000928D9F5F9F73928F90E008958FEF9FEF3D
:101A40000895FC01918D828D981731F0828DE80FF9
:101A5000F11D858D90E008958FEF9FEF0895FC01B3
:101A6000918D228D892F90E0805C9F4F821B910980
:101A70008F739927089580E592E00E942F0D21E051
:101A8000892B09F420E0822F0895FC01848DDF0169
:101A9000A80FB11DA35ABF4F2C91848D90E00196E1
:101AA0008F739927848FA689B7892C93A089B189D0
:101AB0008C9180648C93938D848D981306C00288DA
:101AC000F389E02D80818F7D80830895EF92FF92CE
:101AD0000F931F93CF93DF93EC0181E0888F9B8D51
:101AE0008C8D981305C0E889F989808185FD24C013
:101AF000F62E0B8D10E00F5F1F4F0F731127E02E96
:101B00008C8DE8120CC00FB607FCFACFE889F98972
:101B1000808185FFF5CFCE010E94450DF1CF8B8DE1
:101B2000FE01E80FF11DE35AFF4FF0820B8FEA89A7
:101B3000FB898081806207C0EE89FF896083E88924
:101B4000F98980818064808381E090E0DF91CF918A
:101B50001F910F91FF90EF900895CF93DF93EC01C9
:101B6000888D8823C9F0EA89FB89808185FD05C0BD
:101B7000A889B9898C9186FD0FC00FB607FCF5CFF7
:101B8000808185FFF2CFA889B9898C9185FFEDCF3F
:101B9000CE010E94450DE7CFDF91CF91089580E0FF
:101BA00090E0892B29F00E943B0D81110C940000DC
:101BB00008950F931F93CF93DF93EC018881998150
:101BC000009729F02A813B812617370788F48B017B
:101BD0006F5F7F4F0E94A516009761F099838883FD
:101BE0001B830A832C813D81232B11F4FC0110827D
:101BF00081E001C080E0DF91CF911F910F910895A6
:101C0000EF92FF920F931F93CF93DF93EC017B0131
:101C10008A01BA010E94D90D2881398181110DC034
:101C20002115310519F0C9010E940D16198218827B
:101C30001D821C821B821A8206C01D830C83B70181
:101C4000C9010E948817CE01DF91CF911F910F919A
:101C5000FF90EF9008950E946F17009769F0FC01C4
:101C600001900020E9F73197AF01481B590BBC01E7
:101C700080E592E00C94D30C80E090E00895E09130
:101C80005002F09151020190F081E02D682F80E523
:101C900092E009948F929F92AF92BF920F931F93FD
:101CA000CF93DF93CDB7DEB7A1970FB6F894DEBF21
:101CB0000FBECDBF19A2423008F44AE08E010F5D7D
:101CC0001F4F842E912CA12CB12CA50194010E94B0
:101CD0006813E62FB901CA0101501109EA3014F462
:101CE000E05D01C0E95CD801EC93232B242B252B6C
:101CF00061F7C8010E942D0EA1960FB6F894DEBFC1
:101D00000FBECDBFDF91CF911F910F91BF90AF90CC
:101D10009F908F900895CF92DF92EF92FF92CF9392
:101D2000DF936C01990FEE08FF08F7FE12C08DE2F9
:101D30000E943F0EEC0166277727CB016C197D09C5
:101D40008E099F094AE00E944A0E7C01EC0EFD1E9E
:101D500006C04AE0C701B6010E944A0E7C0185E434
:101D600091E00E942D0E8E0D9F1DDF91CF91FF906F
:101D7000EF90DF90CF90089590E0FC01EE52FF4F7E
:101D80002491FC01E254FF4F8491882399F090E064
:101D9000880F991FFC01EC54FF4FA591B491FC01F1
:101DA000E655FF4F859194918FB7F894EC91E22B13
:101DB000EC938FBF0895CF93DF93FC01248135818D
:101DC000232B71F0FB01DC01CD91DC9160817181ED
:101DD000CE010E948F17009719F08C1B9D0B02C03B
:101DE0008FEF9FEFDF91CF910895FC01808191816A
:101DF0000C940D16FC01118210821382128215823E
:101E000014826115710551F0FB0101900020E9F782
:101E10003197AF01461B570B0C94000E0895CF92DB
:101E2000DF92EF92FF920F931F93CF93DF9300D037
:101E3000CDB7DEB78C01C62E67E471E00E94FA0EC2
:101E40000E948D0C0C2C000CDD0897FD23C08C1516
:101E50009D0501F189831A82F801E480F580FFEF86
:101E6000EF1AFF0AB701C8010E94D90D882379F043
:101E7000F8012081318184819581BE016F5F7F4FA0
:101E8000820F931F0E948817F801F582E4820E9456
:101E90008D0CDBCFC8010F900F90DF91CF911F9178
:101EA0000F91FF90EF90DF90CF900895BF92CF9267
:101EB000DF92EF92FF920F931F93CF93DF937C01FA
:101EC0006B01EA0189012417350720F48D2FE90100
:101ED000042F182F67E471E0C7010E94FA0ED601A3
:101EE00014968D919C911597C817D907C8F580173E
:101EF000910708F48C01D601ED91FC911197E00F48
:101F0000F11FB08010824D915C91BA016C0F7D1F62
:101F10006115710561F0FB0101900020E9F731972F
:101F2000AF01461B570BC7010E94000E13C0F701FB
:101F300080819181009711F00E940D16D7011196B2
:101F40001C921E9215961C921E92149713961C9228
:101F50001E921297D601ED91FC91E00FF11FB08215
:101F6000C701DF91CF911F910F91FF90EF90DF900C
:101F7000CF90BF9008951F920F920FB60F92112429
:101F80002F933F934F935F936F937F938F939F9381
:101F9000AF93BF93EF93FF9380E592E00E94450DCE
:101FA000FF91EF91BF91AF919F918F917F916F9131
:101FB0005F914F913F912F910F900FBE0F901F9007
:101FC00018951F920F920FB60F9211242F938F9393
:101FD0009F93EF93FF93E0916002F0916102808103
:101FE000E0916602F091670282FD12C090818091BB
:101FF00069028F5F8F7320916A02821751F0E0911E
:102000006902F0E0E05BFD4F958F8093690201C0AB
:102010008081FF91EF919F918F912F910F900FBE33
:102020000F901F90189590E0FC01EA56FF4F3491F5
:10203000FC01EE52FF4F2491FC01E254FF4FE4916A
:10204000EE2309F43BC0332339F1333091F038F4F7
:102050003130A9F0323001F584B58F7D12C03730B0
:1020600091F03830A1F03430B9F4809180008F7D48
:1020700003C0809180008F77809380000DC084B56D
:102080008F7784BD09C08091B0008F7703C08091A5
:10209000B0008F7D8093B000F0E0EE0FFF1FE6559B
:1020A000FF4FA591B4918FB7F894EC91611103C0E3
:1020B00020952E2301C02E2B2C938FBF08951092B4
:1020C00053021092520288EE93E0A0E0B0E08093B9
:1020D000540290935502A0935602B09357022AE0FF
:1020E00031E0309351022093500225EC30E03093E0
:1020F0005D0220935C0224EC30E030935F02209379
:102100005E0220EC30E0309361022093600221EC0B
:1021100030E0309363022093620222EC30E030938F
:1021200065022093640226EC30E03093670220932E
:1021300066021092690210926A0210926B0210926B
:102140006C021092F0021092EF028093F1029093D1
:10215000F202A093F302B093F4028CE191E0909329
:10216000EE028093ED0280911D038C30A0F491E08B
:10217000980F90931D038093210390E0FC01EE0FD4
:10218000FF1F8E0F9F1FFC01E750FD4F88EB9BE068
:102190009283818303C08FEF8093210380911D037D
:1021A0008C30A0F491E0980F90931D0380931E0350
:1021B00090E0FC01EE0FFF1F8E0F9F1FFC01E75008
:1021C000FD4F88EB9BE09283818308958FEF80938E
:1021D0001E030895789484B5826084BD84B58160BF
:1021E00084BD85B5826085BD85B5816085BD8091E2
:1021F0006E00816080936E0010928100809181005A
:102200008260809381008091810081608093810051
:10221000809180008160809380008091B100846013
:102220008093B1008091B00081608093B000809174
:102230007A00846080937A0080917A008260809333
:102240007A0080917A00816080937A0080917A0090
:10225000806880937A001092C10088E08093BA0071
:1022600084E691E0909347028093460280E791E0F4
:1022700090934502809344021092430210924202CE
:10228000109241021092400210923F0281E080932E
:102290003E0210923D0261E082E10E94131061E073
:1022A00083E10E9413108091B9008E7F8093B90062
:1022B0008091B9008D7F8093B90088E48093B80045
:1022C00085E48093BC00E0916002F091610282E0BD
:1022D0008083E0915C02F0915D021082E0915E02E9
:1022E000F0915F028FEC808310926802E0916402AB
:1022F000F091650286E08083E0916202F0916302D2
:10230000808180618083E0916202F091630280812C
:1023100088608083E0916202F0916302808180682E
:102320008083E0916202F091630280818F7D8083DF
:102330006AE070E081E293E00E94340A69E070E0B4
:102340008EE193E00E94340A86E00E94BC0E85E094
:102350000E94BC0E84E00E94BC0E82E00E94BC0E73
:1023600083E00E94BC0E87E00E94BC0E61E083E027
:102370000E94131061E082E00E94131061E087E088
:102380000E94131084EF91E09093490280934802D9
:102390008FEE91E090934B0280934A020E94CF0D02
:1023A000FDCF1F93FC0199278827BC01E894119168
:1023B0001032E9F3193010F01E30C8F31B3251F01F
:1023C0001D3249F4689406C00E94F811610F711D16
:1023D000811D911D119110531A30B0F33EF4909568
:1023E0008095709561957F4F8F4F9F4F1F910895F6
:1023F000592F482F372F262F660F771F881F991FB9
:10240000660F771F881F991F620F731F841F951F08
:10241000660F771F881F991F08950E944F1208F4B6
:1024200081E00895E89409C097FB3EF4909580956B
:10243000709561957F4F8F4F9F4F9923A9F0F92F8A
:1024400096E9BB279395F695879577956795B79508
:10245000F111F8CFFAF4BB0F11F460FF1BC06F5FEE
:102460007F4F8F4F9F4F16C0882311F096E911C000
:10247000772321F09EE8872F762F05C0662371F021
:1024800096E8862F70E060E02AF09A95660F771F35
:10249000881FDAF7880F9695879597F90895990F11
:1024A0000008550FAA0BE0E8FEEF16161706E8071E
:1024B000F907C0F012161306E407F50798F0621B3F
:1024C000730B840B950B39F40A2661F0232B242B14
:1024D000252B21F408950A2609F4A140A6958FEF33
:1024E000811D811D08950E9486120C94F7120E948E
:1024F000E91238F00E94F01220F0952311F00C94AC
:10250000E0120C94E61211240C942B130E94081371
:1025100070F3959FC1F3950F50E0551F629FF00136
:10252000729FBB27F00DB11D639FAA27F00DB11D4F
:10253000AA1F649F6627B00DA11D661F829F2227D8
:10254000B00DA11D621F739FB00DA11D621F839F5F
:10255000A00D611D221F749F3327A00D611D231F35
:10256000849F600D211D822F762F6A2F11249F5783
:1025700050409AF0F1F088234AF0EE0FFF1FBB1F86
:10258000661F771F881F91505040A9F79E3F510545
:1025900080F00C94E0120C942B135F3FE4F3983E10
:1025A000D4F3869577956795B795F795E7959F5FEF
:1025B000C1F7FE2B880F911D9695879597F9089581
:1025C00097F99F6780E870E060E008959FEF80ECE6
:1025D000089500240A941616170618060906089589
:1025E00000240A9412161306140605060895092EEF
:1025F0000394000C11F4882352F0BB0F40F4BF2B5E
:1026000011F460FF04C06F5F7F4F8F4F9F4F08959D
:1026100057FD9058440F551F59F05F3F71F0479593
:10262000880F97FB991F61F09F3F79F08795089578
:10263000121613061406551FF2CF4695F1DF08C097
:10264000161617061806991FF1CF869571056105B4
:1026500008940895E894BB2766277727CB0197F95C
:1026600008952F923F924F925F926F927F928F9236
:102670009F92AF92BF92CF92DF92EF92FF920F9311
:102680001F93CF93DF93CDB7DEB7CA1BDB0B0FB61B
:10269000F894DEBF0FBECDBF09942A8839884888D8
:1026A0005F846E847D848C849B84AA84B984C8846E
:1026B000DF80EE80FD800C811B81AA81B981CE0F65
:1026C000D11D0FB6F894DEBF0FBECDBFED0108954A
:1026D000A1E21A2EAA1BBB1BFD010DC0AA1FBB1F26
:1026E000EE1FFF1FA217B307E407F50720F0A21B98
:1026F000B30BE40BF50B661F771F881F991F1A9405
:1027000069F760957095809590959B01AC01BD012E
:10271000CF0108955058BB27AA270E94A2130C94FA
:10272000F7120E94E91238F00E94F01220F039F4FA
:102730009F3F19F426F40C94E6120EF4E095E7FBA3
:102740000C94E012E92F0E94081358F3BA1762079D
:1027500073078407950720F079F4A6F50C942A13E3
:102760000EF4E0950B2EBA2FA02D0B01B9019001AC
:102770000C01CA01A0011124FF27591B99F0593FF0
:1027800050F4503E68F11A16F040A22F232F342F38
:102790004427585FF3CF469537952795A795F04086
:1027A0005395C9F77EF41F16BA0B620B730B840B9B
:1027B000BAF09150A1F0FF0FBB1F661F771F881F53
:1027C000C2F70EC0BA0F621F731F841F48F48795AB
:1027D00077956795B795F7959E3F08F0B0CF93959D
:1027E000880F08F09927EE0F979587950895DF9346
:1027F000DD27B92FBF7740E85FE3161617064807B5
:102800005B0718F4D92F0E94FA149F938F937F933C
:102810006F930E944815E8E6F0E00E94CE140E94F3
:10282000F7122F913F914F915F910E948612DD2305
:1028300051F09058A2EA2AED3FE049EC5FE3D078EE
:102840005D270E94A213DF910C94F7120E943A14A4
:102850000C94F7120E94F01258F00E94E91240F016
:1028600029F45F3F29F00C94E01251110C942B13C2
:102870000C94E6120E94081368F39923B1F35523D0
:1028800091F3951B550BBB27AA2762177307840783
:1028900038F09F5F5F4F220F331F441FAA1FA9F319
:1028A00035D00E2E3AF0E0E832D091505040E69507
:1028B000001CCAF72BD0FE2F29D0660F771F881F68
:1028C000BB1F261737074807AB07B0E809F0BB0B5B
:1028D000802DBF01FF2793585F4F3AF09E3F51056F
:1028E00078F00C94E0120C942B135F3FE4F3983EC5
:1028F000D4F3869577956795B795F7959F5FC9F758
:10290000880F911D9695879597F90895E1E0660FD8
:10291000771F881FBB1F621773078407BA0720F051
:10292000621B730B840BBA0BEE1F88F7E0950895BA
:102930000E949F146894B1110C942B1308950E9467
:10294000101388F09F5798F0B92F9927B751B0F01E
:10295000E1F0660F771F881F991F1AF0BA95C9F723
:1029600014C0B13091F00E942A13B1E008950C9484
:102970002A13672F782F8827B85F39F0B93FCCF337
:10298000869577956795B395D9F73EF490958095A0
:10299000709561957F4F8F4F9F4F0895DF93CF9331
:1029A0001F930F93FF92EF92DF927B018C0168944B
:1029B00006C0DA2EEF010E948612FE01E894A5916E
:1029C0002591359145915591A6F3EF010E94A213EF
:1029D000FE019701A801DA9469F7DF90EF90FF906C
:1029E0000F911F91CF91DF9108950E944F1208F42B
:1029F0008FEF08959B01AC0160E070E080E89FE3F9
:102A00000C94261419F416F40C94E6120C94511537
:102A10000E941013B8F39923C9F3B6F39F57550BCF
:102A200087FF0E945F150024A0E640EA90018058CD
:102A30005695979528F4805C660F771F881F20F0C5
:102A400026173707480730F4621B730B840B2029C5
:102A500031294A2BA69517940794202531254A271A
:102A600058F7660F771F881F20F02617370748078B
:102A700030F4620B730B840B200D311D411DA095AA
:102A800081F7B901842F9158880F969587950895FD
:102A90009B01AC010C9473120E944F12880B990B8E
:102AA00008959F3F31F0915020F487957795679571
:102AB000B795880F911D9695879597F90895915030
:102AC0005040660F771F881FD2F70895991B79E051
:102AD00004C0991F961708F0961B881F7A95C9F7AE
:102AE00080950895EE0FFF1F0590F491E02D099455
:102AF000CF93DF938230910510F482E090E0E09173
:102B00002603F091270320E030E0C0E0D0E03097CA
:102B100011F14081518148175907C0F048175907F2
:102B200061F482819381209719F09B838A832BC063
:102B3000909327038093260326C02115310519F0B1
:102B40004217530718F49A01BE01DF01EF0102801A
:102B5000F381E02DDCCF2115310509F1281B390B5C
:102B60002430310590F412968D919C911397611544
:102B7000710521F0FB019383828304C090932703A6
:102B800080932603FD01329644C0FD01E20FF31F3E
:102B900081939193225031092D933C933AC0209117
:102BA000240330912503232B41F42091020130911D
:102BB00003013093250320932403209100013091D9
:102BC00001012115310541F42DB73EB740910401B3
:102BD00050910501241B350BE0912403F09125034E
:102BE000E217F307A0F42E1B3F0B2817390778F0E4
:102BF000AC014E5F5F4F2417350748F04E0F5F1F43
:102C000050932503409324038193919302C0E0E005
:102C1000F0E0CF01DF91CF9108950F931F93CF93F1
:102C2000DF93009709F48CC0FC0132971382128263
:102C300000912603109127030115110581F42081CD
:102C40003181820F931F209124033091250328178F
:102C5000390779F5F0932503E093240371C0D80177
:102C600040E050E0AE17BF0750F412962D913C9112
:102C70001397AD012115310509F1D901F3CF9D015C
:102C8000DA013383228360817181860F971F821757
:102C9000930769F4EC0128813981260F371F2E5FD5
:102CA0003F4F318320838A819B8193838283452B8D
:102CB00029F4F0932703E093260342C01396FC9374
:102CC000EE931297ED01499159919E01240F351F02
:102CD000E217F30771F480819181840F951F0296AA
:102CE00011969C938E938281938113969C938E93DD
:102CF0001297E0E0F0E0D80112968D919C91139725
:102D0000009719F0F8018C01F6CF8D919C919801F4
:102D10002E5F3F4F820F931F209124033091250394
:102D20002817390769F4309729F410922703109275
:102D3000260302C0138212821093250300932403FA
:102D4000DF91CF911F910F910895A0E0B0E0EBEAE1
:102D5000F6E10C943513EC01009721F4CB010E94AD
:102D60007815B8C0FC01E60FF71F9C01225031090D
:102D7000E217F30708F4ACC0D9010D911C9111972B
:102D800006171707B0F00530110508F49FC0C801F9
:102D900004978617970708F499C002501109061B7B
:102DA000170B019311936D937C93CF010E940D1625
:102DB0008DC05B01A01AB10A4C01800E911EA0913A
:102DC0002603B091270340E050E0E12CF12C10974E
:102DD00009F44AC0A815B905D1F56D907C901197FA
:102DE000630182E0C80ED11CCA14DB0480F1A30188
:102DF0004A195B096A0182E0C80ED11C1296BC9088
:102E000012971396AC91B5E0CB16D10440F0B28284
:102E1000A38351834083D9016D937C930AC00E5FD5
:102E20001F4FC301800F911FF90191838083EB2D08
:102E3000FA2FE114F10431F0D7011396FC93EE93CD
:102E4000129744C0F0932703E09326033FC08D916F
:102E50009C9111974817590708F4AC017D0112960F
:102E60000D90BC91A02DB3CF8091240390912503A8
:102E700088159905E1F446175707C8F480910001B9
:102E800090910101009741F48DB79EB740910401E4
:102E900050910501841B950BE817F907C8F4F093CE
:102EA0002503E0932403F901718360830FC0CB01F4
:102EB0000E9478157C01009759F0A801BE010E947C
:102EC0007417CE010E940D16C70104C0CE0102C0C6
:102ED00080E090E0CDB7DEB7EEE00C94511381E0D6
:102EE00090E0F8940C94A917FB01DC0102C001905A
:102EF0000D9241505040D8F70895FC0181918617FA
:102F000021F08823D9F7992708953197CF010895A3
:102F1000FB01DC0101900D920020E1F70895FB0117
:102F200051915523A9F0BF01DC014D914517411185
:102F3000E1F759F4CD010190002049F04D91401581
:102F40004111C9F3FB014111EFCF81E090E00197FE
:062F50000895F894FFCF84
:102F560000002803800000000000660DD30CFE0C64
:102F6600AD0D2F0D0D0D210D00000000DA01C6017B
:102F7600EC019A01BE01AA019B01626567696E00B8
:102F8600583A00593A00503A006E616E00696E6612
:0C2F9600006F7666000D0A00484F4F00E7
:00000001FF
